:020000040000FA
:10000000000080310328C430FE008030FF008030C3
:100010008031952080312600A1007F08A000C630E5
:10002000A2008030A30026002008A4002108A5001B
:10003000FF30A007031CA10324082504031980280E
:1000400004302207A400A501A50D2308A507240854
:10005000FE002508FF008030803195208031260089
:10006000A7007F08A6002208FE002308FF008030BA
:100070008031952080312600A900A5007F08A800C6
:10008000A40002302207A400A501A50D2308A5079E
:100090002408FE002508FF00803080319520803143
:1000A0002600A500AB007F08A400AA0026002608B1
:1000B000AA002708AB00FF30A607031CA7032A08E5
:1000C0002B0403197A282808FE002908FF00803035
:1000D0008031832080312600AA002408840025086E
:1000E00085002A088000A80A0319A90AA40A03198E
:1000F000A50A562806302600A2070318A30A1328CB
:100100008031B2280800003A03198A28803A03197E
:10011000902800347E0884007F08850000080800CD
:100120007F088A007E0882000800003A03199D2893
:10013000803A0319A528FF0100347E0884007F0857
:1001400085001200FF000008080080319020FD00AB
:10015000FE0FFF03FF0A80319020FC007D08FF00A6
:100160007C0808002600AC0121008E1123008E11AE
:10017000BF302100990026002C0820008E00083096
:100180002600AC06BB28080001340034CC3400340F
:0A0190002D34033401340034003430
:00000001FF
